:020000040800F2
:10000000980F0020D9010008095E0008A1430008EC
:10001000055E0008111700089D6B00080000000035
:10002000000000000000000000000000D165000892
:100030009919000800000000C15F00083568000839
:10004000F3010008F3010008F3010008F3010008C0
:10005000F3010008F3010008F3010008F3010008B0
:10006000F3010008F3010008F3010008F3010008A0
:10007000F3010008F3010008F3010008F301000890
:10008000F3010008F3010008F3010008F301000880
:10009000F3010008F3010008F30100089D190008AE
:1000A000F3010008F3010008F3010008F301000860
:1000B000F3010008F3010008F3010008B143000850
:1000C000A5430008F3010008F3010008F30100084C
:1000D000F3010008796B0008856B0008916B00083C
:1000E000F3010008F3010008F3010008F301000820
:1000F000F3010008F3010008F3010008F301000810
:10010000F3010008F3010008F3010008F3010008FF
:10011000F3010008F3010008F30100081969000861
:10012000F3010008F3010008F3010008F3010008DF
:10013000F30100080000000000000000F3010008C7
:10014000F3010008F3010008F3010008F3010008BF
:10015000F3010008F3010008F3010008F3010008AF
:10016000F3010008F3010008F3010008F30100089F
:10017000F3010008F3010008F3010008000000008B
:1001800000000000F3010008000000000000000073
:10019000F30100080000000000000000F301000867
:1001A000000000000000000000000000F301000853
:1001B000F3010008F3010008F3010008F30100084F
:1001C000F3010008DFF80CD000F03CFD00480047C8
:1001D000A16B0008980F002006488047064800479A
:1001E000FEE7FEE7FEE7FEE7FEE7FEE7FEE7FEE7E7
:1001F000FEE7FEE7FD680008C50100082DE9F05F95
:100200000546002092469B46884606468146402485
:100210001BE0284641464746224600F0E8FA53468E
:100220005A46C01A914110D311461846224600F092
:10023000CFFA2D1A67EB01084F4622460120002114
:1002400000F0C6FA17EB00094E41201EA4F101048C
:10025000DFDC484631462A464346BDE8F09F421C53
:1002600010F8011B0029FBD1801A704710B500223D
:1002700000E0521C835C8C5CA34201D1002BF8D1BE
:10028000D8B2E1B2401A10BD30B505460020034691
:1002900000E05B1C934205D2EC5CC85C201A01D1E3
:1002A000002CF6D130BD00000FB400B58DB010A900
:1002B00009900B9000914FF0FF300A9000200C90B5
:1002C00005480690054807906A4609A80F9900F06E
:1002D000A5FA0DB05DF814FB3908000857080008AE
:1002E0002DE9FF4F087883B09946FF2805D0491CB7
:1002F0002D2804D00024002008E000200BE0012479
:10030000F9E700EB800003EB4000491C0B78FF2B62
:10031000F7D104B1404200230293147819461D46D8
:100320002D2C01D02B2C04D1521C2D2C13D00024A9
:100330000294AA461478FF2C0FD00A25A3FB057857
:1003400001FB05814FF0000C03FB0C11521CE3195B
:100350004AEB0101EEE70124EAE7814453EA010098
:1003600002D019F5C87F06DA03980021C0E9001110
:1003700007B0BDE8F08F0025AE4E2F46DFF8B882FB
:10038000184600F023FCCDE90001B9F1000002DAC3
:10039000C9F1000400E004460023A74A1AEB030B4E
:1003A00042EB045A12E0E00707D02A4633463846AB
:1003B000414600F045F9074688462A46334610462E
:1003C000194600F03DF905460E466410002CEAD1AE
:1003D000DDE90001B9F1000F5A46534606DA00F094
:1003E00086FB3A46434600F082FB05E000F028F920
:1003F0003A46434600F024F9029A0AB181F00041DE
:10040000039AC2E90001B3E72DE9FF4F1F468DB003
:10041000D7E901464FF0FF382E2045464FF000093E
:100420000B90B9696D1C0E988847396A82468847D7
:100430000028F6D1BAF1FF3F0AD024F4D064002E90
:1004400011DDBAF12B0F08D0BAF12D0F0BD102E05C
:10045000404611B08DE744F48064B9696D1C0E9874
:1004600088478246761E6946600501D52D2000E04A
:100470002B208DF8000001F1010B0DF1200809E09F
:10048000B9696D1C0E98884782460F9844F4007431
:10049000761E0560002E02DDBAF1300FF0D00B9908
:1004A0008A453ED144F0800406E00F99681CA9F10A
:1004B000010944F400740860B9696D1C761E0E9839
:1004C000884782463028F0D02BE00B998A4505D129
:1004D000200603D444F08004761E18E0504606F04F
:1004E00065FF08B30DF11302761EAAF1300044F443
:1004F0000074934506D20BF8010B200607D5A9F12D
:10050000010003E0200602D409F101008146A005A4
:1005100002D50F99681C0860B9696D1C0E98884750
:100520008246002ED1DC53E0002E51DDBAF1650F7A
:1005300002D0BAF1450F4BD1A00549D5B9696D1C60
:1005400024F44074761E0E9888478246002E0CDDF7
:100550002B2804D0BAF12D0F07D144F48074B96967
:100560006D1C0E9888478246761EE00501D52D2128
:1005700000E02B2108F8011BCDF82C8021E00DF1C3
:100580002901761E44F4007488450CD2AAF130008B
:1005900010F0FF0088F8000002D10B99884509D9B6
:1005A00008F1010806E0E00501D5244801E042F227
:1005B0000F708146B9696D1C0E98884782460F9866
:1005C0000560002E04DD504606F0F0FE0028D6D16E
:1005D000F9690E988847FF208BF8000088F8000022
:1005E0000020069007904B466A4608A906A8FFF728
:1005F00077FEA00502D46FF001002AE714F0240F63
:100600000AD0E00714D1DDE906123868031D3B600B
:100610000068C0E900120BE0DDE9060100F0A6F871
:100620000146E00704D13868021D3A6000680160A5
:1006300028460EE7000014400000F03FF1D8FFFF0D
:100640002DE9FE4F81EA030404F0004421F000414B
:1006500000944FF0000B23F0004350EA01045ED0F9
:1006600052EA03045BD0C3F30A54C1F30A552C4485
:10067000A4F2F3340194A0FB0254C1F3130141F43A
:100680008011C3F3130343F4801301FB024400FB06
:10069000034E840A970A44EA815447EA8357A4FB2D
:1006A000076802958D0A05FB07854FEA932C04FB2A
:1006B0000C542705029D4FEA065847EA1637B5EB5A
:1006C00008056EEB070C870E920E47EA811742EA87
:1006D0008312A7FB0201B6EB0B0164EB00042B0DA8
:1006E00043EA0C335E1844EB1C50DA465146E7FBF4
:1006F0000201C5F313044FEA0B3343EA14534FEAE4
:100700000432019C43EA0603A4F10C040294009C09
:10071000CDE900B400F0F6F803B0BDE8F08F00209A
:100720000146F9E70EB5C10F80EAE0700844CA0738
:10073000002140F233438DE80E000A460B4600F0DC
:10074000E1F803B000BD00F0004230F000400AD0F4
:10075000C10D01F56071C0F3160042EA0151C208F3
:1007600040071143704700200146704701F00043E5
:1007700030B421F0004150EA010206D00A0DA2F582
:100780006072C1F31301002A02DC30BC0020704704
:10079000440F44EAC104C100E01830BC00EBC25071
:1007A00000F06AB830B50B46014600202022012433
:1007B00009E021FA02F59D4205D303FA02F5491B2F
:1007C00004FA02F52844151EA2F10102F1DC30BD45
:1007D000202A04DB203A00FA02F100207047914001
:1007E000C2F1200320FA03F3194390407047202AF6
:1007F00004DB203A21FA02F00021704721FA02F3CB
:10080000D040C2F1200291400843194670470000D1
:10081000026811441378016018467047D16004499A
:1008200051610449116200211161114600F03ABA88
:1008300011080008990C0008426842B1016811F8DB
:10084000013B23B1521EC0E9001218467047012136
:10085000C160881E704742685AB1C368016843B9D5
:1008600083688B4205D0491E521CC0E9001200204B
:1008700070474FF0FF3070470029A8BF7047401CF9
:10088000490008BF20F00100704710B4B0FA80FCA6
:1008900000FA0CF050EA010404BF10BC704749B1E3
:1008A000CCF1200421FA04F411FA0CF118BF012153
:1008B00021430843A3EB0C01CB1D4FEA00614FEA33
:1008C000102042BF002010BC704700EBC350104402
:1008D0000029A4BF10BC7047401C490008BF20F08D
:1008E000010010BC704710B5141E73F1000408DA43
:1008F000401C41F1000192185B411A4301D120F0E4
:10090000010010BD2DE9F04D92469B4611B1B1FAA0
:1009100081F202E0B0FA80F220329046FFF758FFF1
:1009200004460F4640EA0A0041EA0B0153465A4684
:10093000084313D0114653EA010019D0C8F1400210
:100940005046FFF754FF05460E465046594642466C
:10095000FFF73EFF084305D0012004E0204639465A
:10096000BDE8F08D0020054346EAE0762C4337438E
:100970000A986305E40AA0EB08000022FD0A44EA95
:1009800047540A3002D500200146E9E70105101955
:100990006941DDE9084500196941BDE8F04DA2E76C
:1009A0002DE9FE4F804681EA0300C00F0C460090FF
:1009B00021F0004123F00045B8EB0200A94105D227
:1009C0004046214690461C460B46024623F0004016
:1009D000104347D0270DC7F30A00C3F30A51029012
:1009E000401A019040286BDAC3F3130040F4801BD7
:1009F0000098924620B10023D2EB030A63EB0B0B65
:100A000001985946C0F140025046FFF7E1FE064604
:100A10000D4650465946019A00F02CF910EB08009B
:100A20006141002487EA115284EAE7731A4340D0F7
:100A3000009A62B3019A012A4FEA075215DC001BA3
:100A400061EB02014FF0004202EA0752CDE9004299
:100A5000001C41F5801132462B46FFF753FF03B0CF
:100A6000BDE8F08F40462146F9E7001B61EB02012B
:100A7000001C41F5801300185B412018A2F50017F7
:100A800047EB030140EAD570B6196D4111E06D08DE
:100A90004FEA360645EAC0754FEA0752001B61EB84
:100AA0000201001C41F5801149084FEA300000198D
:100AB000514132462B4603B0BDE8F04FFFF713BF5C
:100AC0000098012240000023D0EB020263EBE073A8
:100AD000009821464FEAE074B8EB000061EB040196
:100AE000E9E783F000435BE781F0004158E72DE937
:100AF000F04D81EA030404F0004B21F00045144658
:100B00004FF0000A23F0004150EA050220D054EAD9
:100B100001021DD0C5F30A570246C5F31303C1F302
:100B20001300C1F30A5640F4801543F48013A7EB79
:100B30000608101BD64608F2FD3873EB050002D3F9
:100B400008F1010801E092185B41B8F1000F03DAE7
:100B500000200146BDE8F08D00204FF480110646CC
:100B600084460EE0171B73EB050705D3121B63EBDE
:100B7000050306434CEA010C49084FEA300092187D
:100B80005B4150EA0107EDD152EA030012D082EA3C
:100B9000040083EA0501084305D0101BAB4106D2CF
:100BA0000122002306E000224FF0004302E06FF034
:100BB000010253101AEB06004CEB085110EB0A002F
:100BC00041EB0B01BDE8F04DFFF78DBE0EB540F2D5
:100BD000334202920022CDE900221346FFF792FE33
:100BE00003B000BDC1F30A52C1F3130140F2FF3359
:100BF00041F480119A4202DA00200146704740F227
:100C000033439A42A2F2334202DC5242FFF7EFBD75
:100C1000FFF7DEBD30B5041E71F1000404DB4FF0B8
:100C20000044404264EB0101141E73F1000405DB33
:100C30001C464FF00043524263EB0403994208BF45
:100C4000904230BD1CB50948009009480190054606
:100C5000009C06E0E06840F0010394E80700984734
:100C60001034AC42F6D3FFF7B1FA0000A47E0008BE
:100C7000C47E0008202A06DBCB17203A41FA02F096
:100C800043EAE07306E041FA02F3D040C2F12002E9
:100C90009140084319467047C0B24FF4F05100F03C
:100CA00097B900002DE9F34F8BB04FF0000801F128
:100CB0000C000C464FF0010B46460DF1080A01905E
:100CC0006269012101989047051E2DD0252D2CD059
:100CD000216A8847C0B16269012101989047216A61
:100CE00088470028F7D1411E62690198904700E0CB
:100CF000761CA1690B988847216A88470028F7D19C
:100D0000E1690B988847DBE7A1690B98884707469C
:100D1000A84201D1761CD3E7E1690B9888477F1C74
:100D200002D1B8F1000F6FD046E1002762693D465D
:100D30003946019890472A2804D162690121019817
:100D400090470125DFF8849262690121019890475C
:100D5000A0F130010A290AD24F45E5DC07EB8701F3
:100D600000EB4107303FDFD445F01005ECE7E90622
:100D700001D46FF000476C280AD04C2814D06828A2
:100D800015D06A280DD074281CD07A281AD01DE0FE
:100D900062690121019890476C2802D045F0040552
:100DA00014E045F002050DE045F020050AE0626917
:100DB000012101989047682802D045F0080505E018
:100DC00045F400656269012101989047C4E9015723
:100DD00065283DD019DC58287AD00CDC452837D05E
:100DE00004DC252826D0412831D131E046282FD0F7
:100DF00047282CD12CE05B2877D0612828D06328A5
:100E00007CD0642823D15AE0D0E06F2848D008DC99
:100E100066281DD067281BD0692821D06E2816D1DE
:100E200027E0702845D0732868D0752847D07828E7
:100E30000DD14DE0A1690B988847054625283FF460
:100E400069AFE1690B9888476D1C3FF46AAFB3E066
:100E500023466A466FF001000B99FFF7D5FA9EE032
:100E600045F040006060A80723464FF0000236D4EA
:100E70003EE0E8077FF447AF2068011D216000686D
:100E8000290501D506701BE7290701D5068017E75C
:100E9000A90703D5F117C0E9006111E706600FE764
:100EA00045F040006060A80723464FF0080216D4C2
:100EB0001EE040F60E0125EA0100606016E045F0F4
:100EC00040006060A80723464FF00A0207D40FE0F5
:100ED00045F040006060A80708D5234610226FF057
:100EE00001000B99AFF3008059E007E02346102280
:100EF0006FF001000B99AFF3008050E04FF0000954
:100F00004F464B46632802D05B2806D040E0E806F7
:100F100001D40120A06001273AE062690121019813
:100F200090475E2805D14FF0010962694946019852
:100F30009047216939B900210A46534643F82120D8
:100F4000491C0829FADBB0B3216969B9C11700EB64
:100F5000D16253110AEB830122F01F02821A012091
:100F60000B68904003430B60626901210198904730
:100F70005D28E8D1B9F1000F09D00020514651F8A1
:100F80002020D24341F82020401C0828F7DB02AB88
:100F9000224600976FF001000B99AFF30080002804
:100FA0000CDA401C08D1BBF1000F05D04FF0FF3028
:100FB0000DB0BDE8F08FFFE74046F9E7E90701D142
:100FC00008F1010806444FF0000B79E6CCCCCC0CBC
:100FD0007F2801D9002208E0064A02EB5002C00730
:100FE000127800D1120902F00F020120904008404F
:100FF000704700002C7B00082DE9F04F81B02DEDEB
:10100000068BA8B000F04AFE44F6D351C1F262014B
:10101000A0FB01010DF16E048A0975A1204605F0BF
:1010200097FE2046FFF71BF982B240F6D020C2F2AD
:1010300000002146642303F0E7F89FED779A40F221
:10104000945B9FED76AABFEE008A42F20F750024F2
:10105000C2F2000B0DF11E074FF00008002600BF82
:101060003BF82800002800F0818000EE100AB8EE5E
:10107000400A80EE0A0A0BEB8800B0F80290ADB28D
:10108000B6B2A9F1010080B241F28631B4EE490A4C
:10109000F1EE10FAB4EE480AB8BFB0EE409AF1EEA5
:1010A00010FAC8BFB0EE408AA94538BF4D46B145D9
:1010B00088BF4E46884209D8B9F1310F0AD8C9F124
:1010C00032005A2101EB50002CE000BF4FF0000A23
:1010D00030E000BFB9F1C70F0AD86FF03700A0EBBE
:1010E0000900C0B2AB214843502101EB502019E068
:1010F0004FEAD9007C2809D8C9F57A7080B24CF63D
:10110000CD414843462101EB10500BE041F28830BD
:10111000A0EB090080B2800841F27B4148433C21AA
:1011200001EB50405FFA80FABAF1640F4FF06400AF
:1011300028BF824610EE100AFFF705FB41EC100BAA
:10114000384637A12246CDE9029A8DED000B05F015
:10115000FFFD3846FFF783F882B240F6D020C2F296
:10116000000039460A2303F04FF80134B8F1F80FB4
:1011700004D8142C08F10108FFF672AF002C27DD0B
:1011800019EE100AFFF7DFFA41EC190B18EE100AFE
:10119000FFF7D9FA41EC100BA8B2B1B2CDE90401C6
:1011A00047F672610DF11E05C0F600012846224681
:1011B0008DED009B8DED020B05F0CAFD2846FFF773
:1011C0004EF882B240F6D020C2F20000294605E077
:1011D00040F6D020C2F200001AA11922642303F0C5
:1011E00013F828B0BDEC068B01B0BDE8F08F00BF4E
:1011F000526164617220446174612028743D2575D8
:101200002C204C617465737420323020706F696ECD
:101210007473293A0D0A000000C079440000C842E6
:10122000506F696E742025643A20413D252E316649
:10123000C2B020443D25646D6D20513D25640D0AEA
:10124000000000004E6F207261646172206461745E
:101250006120617661696C61626C650D0A00000055
:10126000B0B540F6503440F24405C2F20004C2F278
:10127000000520462946012202F018FF48F2A52069
:1012800025F8080F0520A87000204FF4085CC5F869
:1012900003002046294609226423A5F807C0BDE8BB
:1012A000B04002F0B1BF000040F24401C2F20001C0
:1012B00042F2A55021F8080F40F650304FF0CA0C0A
:1012C000C2F2000003224FF47A7381F802C002F0E8
:1012D0009BBF000080B582B040F6D020C2F2000073
:1012E00011A11322642302F08FFF4AF65520CAF69B
:1012F0005520019040F65030C2F2000001A90422AE
:101300004FF47A7302F080FF002840F6D020C2F23A
:1013100000004FF0640319BF08A10F220BA10D229A
:1013200002F072FF02B080BD54657374696E67206D
:1013300055415254332E2E2E0D0A00005541525461
:1013400033205458204641494C0D0A00554152540F
:1013500033205458204F4B0D0A00000040F2180172
:10136000C2F200010122C86002F0A0BEB0B540F296
:101370001804C2F20004607801280BD100206070CC
:10138000FFF76EFF0121E06861710BA11822642351
:1013900002F03AFFA078012818BFB0BD0025A57063
:1013A000FFF782FFE0680BA1182264236571BDE896
:1013B000B04002F029BF00BF5261646172207363C4
:1013C000616E6E696E6720737461727465640D0A74
:1013D000000000005261646172207363616E6E6987
:1013E0006E672073746F707065640D0A00000000F2
:1013F0002DE9F0418EB040F21804C2F20004E16819
:10140000814203D00EB0BDE8F08100BF20780D28E6
:1014100001D00A2820D1A17941B304F118054FF079
:1014200000080DF1060605F801804DA130462A4658
:1014300005F08EFCE7683046FEF711FF82B23846B1
:1014400031460A2302F0E0FE284604F0BBFD207876
:1014500084F806800AE000BFA179122904D84A1C4A
:101460002144A271087601E00021A17130380828DA
:1014700000F26D80DFE800F0061A2E38424C525818
:10148000600000BF40F21000C2F2000000210170B5
:101490000020C4F202002021002200F0F9FBE068E5
:1014A00047F6FF31C0F600010E224DE040F2100079
:1014B000C2F20000012101700020C4F202002021CC
:1014C000012200F0E5FBE06847F60E41C0F600019E
:1014D0000B2239E040F21000C2F20000022101703C
:1014E000E0683DA119222FE040F21000C2F2000096
:1014F00003210170E06831A11A2225E040F21000BA
:10150000C2F2000004210170E06828A10F221BE054
:101510000121E06821711DA11E2215E00021E06873
:10152000217112A11E220FE00121E068617147F6CE
:101530007141C0F6000106E00021E068617147F6E4
:101540001A41C0F600011C22642302F05DFEE0682F
:101550002146012202F0AAFD0EB0BDE8F08100BFD5
:10156000436D643A20272573270D0A00456E636F8B
:1015700064657220646174612073656E64696E676E
:101580002073746F707065640D0A0000456E636FA0
:1015900064657220646174612073656E64696E674E
:1015A00020737461727465640D0A00004361723ABD
:1015B000204241434B574152440D0A004361723A65
:1015C000205455524E2052494748542028726F7477
:1015D000617465290D0A00004361723A2054555226
:1015E0004E204C4546542028726F74617465290D55
:1015F0000A000000B0B52DED088BAAB004F006FC7F
:1016000040F21804C2F20004E57910EE100AB0EEC0
:10161000608AB0EE419AFFF796F841EC1A0B18EE8B
:10162000100AFFF790F89FED260A41EC180B29EEFF
:10163000000A10EE100AFFF786F841EC190B092D8D
:1016400024D840F29C10C2F200000068FFF77BF83B
:1016500041EC1B0B40F2A010C2F200000068FFF743
:1016600072F841EC100B1EA20AA880218DED00AB90
:101670008DED028B8DED049B8DED06BB8DED080B82
:1016800005F04CFBE0790130E0710AE00DA20AA8F8
:1016900080218DED00AB8DED028B8DED049B05F06F
:1016A0003DFB0AADE4682846FEF7D9FD82B220462C
:1016B0002946642302F0A8FD2AB0BDEC088BB0BD1A
:1016C00033336542583A252E326620593A252E3258
:1016D0006620543A252E3266C2B00D0A0000000082
:1016E000583A252E326620593A252E326620543A31
:1016F000252E3266C2B0205B565F4C3D252E3366E8
:1017000020565F523D252E33665D0D0A0000000015
:10171000FEE7000070B540F61024C2F20004204637
:101720000021002502F078FA2046042102F074FA24
:101730002046082102F070FA20460C2102F06CFAD3
:1017400040F24416C2F20006DFED0E0A9FED0E1ABB
:1017500006F11000B0EE080A04F02AFCDFED0B0AD7
:101760009FED0B1A06F13400B1EE000A04F020FCE4
:101770002068C6E90155358045638563C563056406
:1017800070BD00BFCDCCCC3DCDCC4C3D9A99193E1F
:101790000AD7A33D10B52DED028B40F24414C2F2DE
:1017A00000042078002800F086806078A0B100F066
:1017B00075FAE168401AB0F57A7F0BD240F6102036
:1017C000C2F2000000683C214163002181633E2198
:1017D0006EE000BF0020607040F29C10C2F200007A
:1017E00094ED010AD0ED000A04F1100004F092FB20
:1017F00040F2A01094ED021AC2F20000D0ED000AEF
:10180000B0EE408A04F13400B0EE410A04F082FBED
:101810009FED2A1A9FED2A2AB4EE418AF1EE10FAC2
:10182000C8BFB0EE418AB5EE408AF1EE10FAB4EED0
:10183000410AB8BFB0EE428AF1EE10FAC8BFB0EE6E
:10184000410AB5EE400ABCEEC81AF1EE10FAB8BF74
:10185000B0EE420A11EE100A94ED011A0146B5EEFF
:10186000401AB3EE041A94ED022AF1EE10FAC8BF42
:101870001421B4EE418AF1EE10FAA8BF014640F6F9
:101880001020C2F200000068BCEEC03A13EE102A2D
:10189000416300218163B5EE402A1146F1EE10FA52
:1018A000C8BF1421B4EE410AF1EE10FAA8BF1146E8
:1018B000C16300210164BDEC028B10BD0000C84271
:1018C00000000000042888BF7047DFE800F003151F
:1018D0002537490010B540F24414C2F2000440F22A
:1018E0000110208000F0DAF949F69A11C3F69961E7
:1018F000C4E90111E06010BD40F61021C2F2000100
:1019000040F244100968C2F20000002202804A63DB
:101910008A63CA630A64704740F6102140F244109B
:10192000C2F20001C2F200000968002202803220E7
:101930004A6388633320C8630A64704740F24410E6
:10194000C2F200000021018040F61020C2F2000027
:101950000068322242638163C163332101647047AE
:1019600040F6102140F24410C2F20001C2F2000021
:1019700009680022028032204A6388633320CA63E8
:101980000864704740F24410C2F2000080ED010A82
:10199000C0ED020A7047000070470000402000F0D0
:1019A00093B8000080B540F6D010C2F200003C2190
:1019B00001F024FF40F65020C2F200003C2101F06B
:1019C0001DFF40F29C10C2F200000021C0E900118E
:1019D000C0E9021180BD000040F6D010C2F2000044
:1019E00000680022416A426240F65020C2F20000C4
:1019F000006809B2436A00EE101A1BB29FED161A76
:101A000002EE103AB8EEC00AB8EEC22A80EE010A21
:101A100082EE011A9FED112A9FED113A426240F2C7
:101A20009C10C2F2000090ED035A20EE024A21EE13
:101A3000022A84EE034A82EE032A90ED023A35EE42
:101A4000011A30EE030A80ED020A80ED031A80EDE0
:101A5000004A80ED012A70470000C344508D573E74
:101A60000AD7233CEFF3108072B600BFFEE70000F8
:101A700090F83510022909D1052180F83510006849
:101A8000016821F00101016000207047802141655B
:101A90000120704790F8350070470000B0B504464B
:101AA00000F0FCF8054640F20400C2F200000078A5
:101AB000611C18BF044400BF00F0F0F8401BA042B6
:101AC000FAD3B0BD7047000043F61441C4F20101DF
:101AD0000A68024214BF08607047FFF7F3BF0000B6
:101AE0002DE9F04F82B000F13E4202F1FF7287050E
:101AF00041F6000647EA9227C4F20206072243F69F
:101B0000004EB04208BF0622C4F2010E062F38BFB5
:101B10003A464FF0010A002600274FF000080092D5
:101B200008E000BF023708F10108202F06F1040683
:101B300000F0AA800A680AFA08F412EA0409F1D04F
:101B4000D1F804C0BCF1120F00F298800AFA0CF22E
:101B500012F0061F00F092800323826803FA07F553
:101B6000CB68AA43BB401A43826042684FEA1C1309
:101B7000A24303FA08F34FEA480A6FEA050B1A4337
:101B80004260C2688B6802EA0B0203FA0AF31A4346
:101B90004CF01003122BC26013D16FF0030202EA63
:101BA0005802024406F01C050F23D2F820C003FAA5
:101BB00005F40B692CEA0404AB4023431362D1F80B
:101BC00004C002680CF0030302EA0B0203FA0AF3F2
:101BD0001A435FEACC034FF0010A0260A2D500224B
:101BE00043F644030192C4F202031A684FF6084C0C
:101BF00042F480421A601A68CFF6FF7C02F48042F9
:101C00000192019A28F00302724452F80C3006F057
:101C10000C050F24AC40A343009C04FA05F52B43AC
:101C200042F80C30DEF800204B6842EA0905DC037C
:101C300058BF22EA0905CEF80050DEF804209C03C4
:101C400042EA090558BF22EA0905CEF80450DEF839
:101C50000820DC0242EA090543F60C4458BF22EA98
:101C60000905CEF80850C4F2010422689B0242EA3A
:101C7000090558BF22EA0905256053E70322BA4047
:101C80006FEA020BBA467CE702B0BDE8F08F0000B5
:101C9000002A08BF090481617047000040F69430B3
:101CA000C2F20000006870477047000070470000F3
:101CB000F0B581B00446006800254769426894F891
:101CC0003E1002F48076FA0505D5002E1EBF6FF493
:101CD000807242610125BA0505D5002E1EBF02356E
:101CE0006FF4007242617A0516D5AEB1628D94F838
:101CF0003D30D4F830C0202908BF002A24D06FF42A
:101D00008062402905F10405426101D0102903D108
:101D1000016841F400710160380507D536B12068CB
:101D200008356FF40061416101E000BF55B1206CDE
:101D300040EA05012046216401B0BDE8F04002F010
:101D4000CFBB00BF01B0F0BD03F0F701212909D0DE
:101D5000282B08BFBCF1210F04D06FF480614161D2
:101D60000435D9E794F83D10E26AB2F1080318BFD0
:101D70000123203A18BF0122134208BF28291DD091
:101D8000212935D10021CFF6FF71E16221212163A4
:101D9000202184F83D10002184F83E10416821F490
:101DA000E06141606FF480614161016821F480610C
:101DB0000160204600F002FFAEE700BF0021CFF631
:101DC000FF71E162416821F4E06141606FF480617C
:101DD0004161016821F480610160002020212063BD
:101DE00084F83D1084F83E00204600F0EFFB93E7B6
:101DF0006FF4806141618FE770B582B0D0F800C0A8
:101E00000446DCF80400E16A94F83E2094F83D6052
:101E1000402A01D0102A25D1DCF81850DCF8143003
:101E2000DE0753D1B1F12A4F00F07E82B1F52A0FBF
:101E300000F07A82190700F4007140F12381002933
:101E400000F02081606B616CC9B2CCF8101018B939
:101E5000A16B002900F06882C06B002840F0098166
:101E6000A06B02E1216C00F4007200290CBFDCF8C9
:101E700018500025DCF81430990741D5002A3FD0CE
:101E8000206C002818BFDCF8185094F83D0000F0D2
:101E90002800282840F07E80DCF80400012120F48E
:101EA0008060CCF8040005F0040081EA9001280667
:101EB0004FF0180058BF0C20225A0023204684F807
:101EC0003C3002B0BDE87040FFF7F0BE810549D458
:101ED0000126DCF804106D074AD4090500F12482BC
:101EE00003F04401402940F0458110F4806000F087
:101EF0004181204602B0BDE8704002F02BBC00BF1B
:101F0000D90651D5002A4FD094F83D50DCF8040092
:101F100020F4E060CCF8040000200190DCF814000C
:101F20000190DCF8000040F00100CCF800000198BE
:101F3000DCF8000020F48060CCF80000DCF804003D
:101F4000000540F15A8105F0F7002646222840F0AE
:101F5000318156F8380F0168496826F80E1C36F8AA
:101F60000E1C2FE1E06AB0F52A0F51D1012054E098
:101F7000090500F1D98103F08401802940F008812E
:101F800010F4806000F00481204602B0BDE870408B
:101F900002F0B8BC6FF00200CCF81400002084F806
:101FA0003C0002B070BD00BF06F0F701212940F0EF
:101FB0009F8003F08401802940F0708110F48060DC
:101FC00000F06C8194F83D00618D002900F0AC8137
:101FD000616A11F8012BCCF810206162618D013922
:101FE0006185618D002908BF292840F09D81DCF8BA
:101FF0000400282120F48060CCF804002120206314
:10200000204684F83D1002B0BDE8704000F0D6BD17
:10201000E06AB0F12A4F01D10820E06294F83E0056
:1020200040280BD1206D616C002801F0FE0018BF24
:1020300040F00100CCF8100002B070BD2069B0F58E
:10204000804F40F0858094F83D00616C212801F0BC
:10205000FE0118BF0131CCF81010606B08B1C06BE5
:1020600038B9A06B002800F05F81C06B002800F039
:102070005B81DCF8040040F40060CCF8040002B09E
:1020800070BD00BF4FF0010E9E078EEA51267FF50E
:1020900020AF00293FF41DAF94F83E10E06A226B98
:1020A00094F83D30222B40F00781236D002B08BFB0
:1020B000402900F00181216D002940F03D81216916
:1020C000B1F5404F40F0388100200190DCF8140059
:1020D0000190DCF8180001900198DCF8000040F451
:1020E0008070CCF80000206D0130206502B070BD1A
:1020F00003F04401402940F0EB8010F4806000F0D0
:10210000E78094F83D00618D002900F00D81DCF836
:102110001010626A1170616A01316162618D01396A
:102120006185618D002908BF2A2840F0FD80206864
:10213000416821F4806141602220282120632046EB
:1021400084F83D1002B0BDE8704000F035BD00BF1E
:10215000206D002800F0CC80206D012840F0E48044
:10216000606C062101EAD010F130CCF8100002B00A
:1021700070BD00BF03F00400012181EA90003043EC
:1021800040F0D280204602B0BDE8704002F06EBA46
:1021900003F00400012181EA9000304340F0C48044
:1021A0002046102A40F0C28002B0BDE8704002F024
:1021B0006DBB00BF56F8340F0168496826F80A1C49
:1021C00036F80A1C19B1216C41F004012164DCF8D5
:1021D000041021F40061CCF80410FFF75BFC012827
:1021E0000BD0306844F2BD31C0F600010165FFF745
:1021F0003FFC10B13068016D8847608D60B1206888
:102200004169490730D4416949063AD4608D18B113
:10221000206C40F004002064206C28B1204602B0FD
:10222000BDE8704002F05CB92A2D07D10020206380
:10223000282084F83D00204600F0BEFC94F83D00C4
:1022400028285FD10020CFF6FF70E0620021202017
:10225000216384F83D00204684F83E1002B0BDE8BA
:10226000704000F0B3B900BF0069616A0870616A2C
:10227000206801316162618D0139618541694906DA
:10228000C4D50069616A0870606A01306062608D5F
:1022900001386085608D0028BAD1BDE7580743D565
:1022A000002A41D0608D00283ED0606A10F8011BE2
:1022B000CCF8101017E000BF00200190DCF81400EB
:1022C0000190DCF818000190019802B070BD00BFC9
:1022D000580729D542B3608D30B3DCF81000616A2D
:1022E0000870606A01306062608D013860851BE0B3
:1022F000606C062101EAD010F030CCF8100002B07A
:1023000070BD00BF206B222818BF222D0CD10021E8
:102310002020216384F83D00204684F83E1002B05E
:10232000BDE8704000F048BC02B070BD02B0BDE82E
:10233000704002F041BB00BF618D61B1618D012928
:102340001CD1202818BF08282ED1DCF8000020F46A
:102350008060CCF8000000200190DCF814000190AF
:10236000DCF8180001900198DCF8000040F40070DF
:10237000CCF800000020206502B070BD618D0229FC
:102380000CD110283AD8012114228140C0F2010258
:10239000114233D04FF4806138E000BFDCF8001008
:1023A00041F4806135E000BF10F5803F10D1DCF8CA
:1023B000000020F48060CCF80000DCF80400000588
:1023C000C9D5DCF8000020F48060CCF8000038E0CB
:1023D000122A01D10128B8D11028F2D8012101FA1E
:1023E00000F01421C0F201010842EAD0DCF800003C
:1023F00040F48060CCF8000023E000BFDCF800105F
:1024000021F48061CCF800104FF40061DCF800206A
:102410001143CCF80010DCF80410090511D5411E59
:102420001F291BD8012202FA01F148F28102C8F2E9
:102430000002114212D0DCF8040040F48050CCF8C5
:10244000040000200190DCF814000190DCF8180072
:10245000019001980020206502B070BD10F5803F0A
:10246000E9D0EEE770470000002804BF0120704764
:10247000F0B581B0044690F83D0028B9002084F8FA
:102480003C00204600F050FB242084F83D002068EA
:10249000016821F001010160016841F4004101601F
:1024A000016821F40041016000F032FD636848F2E8
:1024B000A16CC0F2010C40F60011C0F23D01634571
:1024C0003CBF48F28041C0F21E01884202D2012086
:1024D00001B0F0BD4DF68361C4F21B31A0FB0112C7
:1024E0002168970CD1F804E04FF496762EF03F0562
:1024F00045EA92454D60774348F638160D6AC0F2BA
:102500004106A7FB067625F03F07634538BF960CCA
:10251000721C3A430A62CA6948F2A0664CF6FF7719
:10252000C0F20106B34222EA07020BD801385B0071
:10253000B0FBF3F001306FF31F30042898BF042084
:102540001BE000BFA768013857B119277B43B0FBD8
:10255000F3F001306FF31F3070B100F5804007E0F9
:1025600003EB4303B0FBF3F001306FF31F3018B1FE
:1025700000F5004001E000BF01201043C861086879
:10258000D4E9072320F0C00010431843086088688E
:1025900048F2FF3204F10C0790438CCF18431043EC
:1025A000A6698860C86820F0FF0038433043C860DF
:1025B000086840F00100086000202021206484F8B1
:1025C0003D10206384F83E0001B0F0BD704700006C
:1025D000704700007047000070470000704700001F
:1025E0002DE9F04784B0984617460E460446FFF79B
:1025F00055FB94F83D10202923D1054620688169B8
:10260000890719D5FFF74AFB401B1928F6D9002086
:102610002021206384F83D1084F83E00206C04F1F2
:102620003C0940F0200020640220002189F80010BD
:1026300004B0BDE8F08700BFA14619F83C1F01298E
:1026400004D1022004B0BDE8F08700BF012289F860
:1026500000200368DDE90D1A0C9ADB0703D103683B
:1026600043F001030360036823F400630360222046
:1026700084F83D00402084F83E000020206462621F
:102680006185608D314620850020CFF6FF70E062C5
:1026900020463A464346CDE900A502F0E3F918B1D9
:1026A000012004B0BDE8F087208DA8B102282BD00E
:1026B000012835D121680A6822F480620A6000226C
:1026C00003924A6903928A690392039A0A6842F460
:1026D00000720A602CE000BF00200390206841696E
:1026E0000391816903910399016841F400710160CC
:1026F000202084F83D00002084F83E00002189F865
:10270000001004B0BDE8F08721680A6822F48062F6
:102710000A600A6842F400620A600022039202E042
:102720000021039121684A69039289690391039901
:102730000AF1010680B2032818D8022842D00128E5
:1027400056D1BAF1000F00F0AB802068014651F875
:10275000142F520600F1A8800868C00600F1E2803C
:10276000FFF79CFA401B5045EFD9D0E0BAF1000FBB
:1027700010D000BF2068014651F8142F52060ED425
:102780000868C00600F1CE80FFF788FA401B50456C
:10279000F0D9BCE020684169490640F1B180006988
:1027A000616A0870606A2268411C208D616201388C
:1027B0002085638D013B638553695B0740F1808011
:1027C000106973E020684169490747D4002E59D049
:1027D000BAF1000F00F09980FFF760FA401B5045F6
:1027E00000F29580206841694907F5D536E000BFC1
:1027F0002068416949070FD4002E65D0BAF1000F57
:1028000000F08380FFF74AFA401B504500F27F80BA
:10281000206841694907F5D5016821F480610160AC
:102820000069616A0870606A218D01300139606257
:1028300021852068618D01396185416949070DD481
:10284000002E4FD0BAF1000F5FD0FFF727FA401BE0
:1028500050455CD8206841694907F6D5016841F4C4
:10286000007101600069616A0870606A2268411C39
:102870006162218D01392185618D0139618511697F
:10288000417014E041694907E8D4416949075CBFD8
:1028900041695FEA4171E1D441694907F2D5DDE759
:1028A0002068416949062BD50069616A0870606A31
:1028B000218D01306062481E2085618D013961855E
:1028C00001047FF437AF13E741694907A4D4416994
:1028D00049075CBF41695FEA41719DD4416949077D
:1028E000F2D599E741694907B8D4416949075CBF06
:1028F00041695FEA4171B1D441694907F2D5ADE759
:1029000050F8141FC90601460CD4FFF7C7F9002080
:102910002021206384F83D1084F83E00206C40F0B4
:1029200020000AE06FF010000860002020212063E2
:1029300084F83D1084F83E00206C206401200021C2
:1029400089F8001004B0BDE8F08700002DE9F043DD
:1029500083B0994616460F460446FFF79FF994F850
:102960003D1020291ED1054620688169890715D5AB
:10297000FFF794F9401B1928F6D900202021206385
:1029800084F83D1084F83E00216C41F02001216460
:1029900084F83C00022003B0BDE8F08394F83C10BA
:1029A000012903D1022003B0BDE8F083012284F89D
:1029B0003C200368DDE90B180A9ADB0703D10368A2
:1029C00043F001030360036823F4006303602120E4
:1029D00084F83D00402084F83E00002020646262BC
:1029E0006185608D394620850020CFF6FF70E0625A
:1029F000204632464B46CDE9008502F0C1F918B1B8
:102A0000012003B0BDE8F083208D002850D020685D
:102A100008F10106014651F8142F12062CD49EB17C
:102A2000B8F1000F5AD000BF086840055ED4FFF728
:102A300035F9401B404556D82068014651F8142FFF
:102A40001206F1D518E000BF0A6852054ED40A6894
:102A5000120611D40A68520548D40A6812060BD42B
:102A60000A68520542D40A68120605D40A6852055B
:102A70003CD40A681206E7D5626A114611F8013B98
:102A80000361238D6162591E2185678D013F678532
:102A900047697F070AD50F0408D051780161911C5E
:102AA0006162991E2185628D013A62850904B1D166
:102AB000204641462A4602F09DFA38BB206801684C
:102AC00041F400710160202084F83D00002084F86A
:102AD0003E0084F83C0003B0BDE8F0830868400580
:102AE00004D4FFF7DBF8202004E000BF6FF480601F
:102AF0000860042000212022216384F83D2084F80E
:102B00003E10226C1043206484F83C10206C042892
:102B10007FF476AF2068016841F400710160012004
:102B200003B0BDE8F0830000016845F20040C4F244
:102B30000000814218BF7047B0B586B0002543F64B
:102B400030040195C4F20204216800F5D83041F048
:102B500002012160216801F00201019101994FF405
:102B600040710191122102910121039103210491ED
:102B70000421059101A9FEF7B3FF0095206900210A
:102B800040F4001020612069002200F40010009041
:102B900000981F2000F090F81F2000F07BF8202004
:102BA0000021002200F088F8202000F073F806B021
:102BB000BDE8B0407047000070470000704700005B
:102BC00040F2040040F69431C2F20000C2F200016B
:102BD00000780A68104408607047000080B543F62A
:102BE0000040C4F20200016841F400710160016814
:102BF00041F480610160016841F48071016003204B
:102C000000F086F8002000F005F800F027F800201A
:102C100080BD000070B540F20406C2F2000640F22A
:102C20000C013278C2F200014FF47A730968B3FBE9
:102C3000F2F20446B1FBF2F1084600F087FB0F2CDC
:102C40004FF0010508D838B94FF0FF302146002277
:102C5000002500F031F87460284670BD82B0002075
:102C600043F640010190C4F202014A6842F48042F6
:102C70004A604A6802F480420192019A0090086812
:102C800040F080500860086800F080500090009884
:102C900002B07047002848BF704700F01F010122B2
:102CA00002FA01F11C2202EAD0004EF20012CEF22A
:102CB000000281507047000010B54EF60C5CCEF259
:102CC000000CDCF80030C3F3022E8EF00704042C55
:102CD00028BF0424BEF103034FF0FF3E0EFA04F4B4
:102CE00038BF0023A14399400EFA03F39A431143DE
:102CF00000F00F0200F160430901043A03F5644358
:102D00006244002848BF02F10C03197010BD000096
:102D10004EF60C51CEF200010A684FF6FF031A403E
:102D200060F30A2242F0806040F0FD700860704756
:102D300070B582B00020019043F64000C4F202005A
:102D40000168402641F0805101600068C4F20E26FF
:102D500000F080500190019847F204050120C4F270
:102D600000053060FEF79AFF044600BF2868C003E4
:102D700006D4FEF793FF001BB0F57A7FF6D90EE07C
:102D800001207060FEF78AFF044600BF28688003B8
:102D900008D4FEF783FF001BB0F57A7FF6D9032035
:102DA00002B070BD002002B070BD0000002804BF5A
:102DB000012070472DE9F04143F60808C4F20208EB
:102DC0000446D8F8F8030D4600F00F00884207D2F9
:102DD00088F8F853D8F8F80300F00F00A84277D12C
:102DE0002068810717D5410705D5D8F8001041F4B0
:102DF000E051C8F80010010705D5D8F8001041F4DB
:102E00006041C8F80010D8F80010A26821F0F00165
:102E10001143C8F80010C00740D1D8F8F80300F0FB
:102E20000F00A84207D988F8F853D8F8F80300F043
:102E30000F00A8424CD12068410707D5D8F80010F0
:102E4000E26821F4E0511143C8F80010000708D5EA
:102E5000D8F80000216920F4604040EAC100C8F8B9
:102E6000000000F07DF8D8F8001047F66C32C1F38E
:102E70000311C0F60002515C40F20C0220FA01F18D
:102E800040F20800C2F200000068C2F200021160C5
:102E9000FFF7C0FE0020BDE8F08100BF6068811E22
:102EA000022907D258F8081C89015CBF0120BDE83F
:102EB000F08111E0012807D158F8081C89035CBF94
:102EC0000120BDE8F08107E058F8081C890703D409
:102ED0000120BDE8F08100BFD8F8001021F0030107
:102EE0000843C8F80000FEF7D9FE064641F28837CD
:102EF000D8F80000616800F00C00B0EB810F8CD0B6
:102F0000FEF7CCFE801BB842F2D90320BDE8F08169
:102F100040F20C0043F60801C2F20000C4F20201C4
:102F20000068096847F67C32C1F38221C0F60002CE
:102F3000515CC8407047000040F20C0043F60801A5
:102F4000C2F20000C4F202010068096847F67C3250
:102F5000C1F34231C0F60002515CC8407047000026
:102F600010B543F60404C4F202046068C0F38101A2
:102F700042F20040C0F2F400DFE801F0410208260E
:102F800047F64000C0F27D1010BD00BF20682168E8
:102F90002368490247F64001C0F27D1100F03F026C
:102FA000C3F388105CBF42F20041C0F2F401A1FB00
:102FB00000010023FDF722F921680222C1F301413B
:102FC00002EB410119E000BF206821682368490233
:102FD00047F64001C0F27D1100F03F02C3F38810B4
:102FE0005CBF42F20041C0F2F401A1FB00010023EA
:102FF000FDF704F92168C1F30271B0FBF1F010BDD7
:103000002DE9F04182B00446007843F60006C0077F
:10301000C4F202062BD0B06800F00C00042821D0C6
:10302000B06800F00C00082802D17068400219D482
:10303000B06800F00C000C2802D17068400211D476
:103040006068B0F5803F07D0B0F5A02F40F00C814C
:10305000306840F480203060306840F48030306068
:103060000CE100BF3068800301D5606890B3207820
:10307000800720D5B06810F00C0F0FD0B06800F0BA
:103080000C00082802D17068400207D5B06800F033
:103090000C000C286ED1706840026BD43068800739
:1030A00002D5E068012815D13068216920F0F800C8
:1030B00040EAC1003060207800070FD42078400734
:1030C00022D4A569002D00F00F81B06800F00C003B
:1030D000082879D1012002B0BDE8F081606900289C
:1030E0005ED00020C4F247200121C0F8801EFEF708
:1030F000D5FD0546706F8007E0D4FEF7CFFD401B7D
:103100000228F7D9C7E000BF306C5FEAC0080AD4D4
:1031100000200190306C40F080503064306C00F042
:1031200080500190019847F20007C4F20007386808
:10313000C00511D4386840F480703860FEF7AEFDE9
:10314000054600BF3868C00506D4FEF7A7FD401B42
:103150000228F7D99FE000BFA068012805D0052804
:1031600054D1306F40F004003067306F40F0010000
:10317000306755E0E068002862D00020C4F24720A4
:1031800001210160FEF78AFD054600BF3068800717
:103190003FF58AAFFEF782FD401B0228F6D97AE0A0
:1031A0000020C4F247200021C0F8801EFEF776FD03
:1031B000054600BF706F80077FF580AFFEF76EFD9C
:1031C000401B0228F6D966E00027C4F247270020FA
:1031D0003866FEF763FD022D05460BD1306880018D
:1031E0005ED5FEF75BFD401B02284FF00300F5D9CA
:1031F000A9E000BF3068800176D5FEF74FFD401B87
:1032000003284FF00300F5D39DE000BF316F002885
:1032100021F001013167316F21F00401316767D07E
:10322000FEF73CFD054641F2883700BF306F80074E
:1032300070D4FEF733FD401BB842F7D92BE000BF36
:103240000020C4F2472000210160FEF727FD05465B
:10325000306880077FF52FAFFEF720FD401B022866
:103260004FF00300F4D96EE03168002821F480317A
:103270003160316821F48021316055D0FEF70EFDB8
:10328000054600BF306880033FF5F1AEFEF706FD4E
:10329000401B6428F6D9032002B0BDE8F08100BFCE
:1032A00004F11C052FCD246B084340EA8210D9039A
:1032B0004FF6FF729143A1F5803140EA0560084363
:1032C00040EA0470706001203866FEF7E7FC0446AF
:1032D0003068800108D4FEF7E1FC001B02284FF0A3
:1032E0000300F5D92FE000BF002002B0BDE8F08157
:1032F000FEF7D4FC054641F2883700BF306F8007E7
:1033000008D5FEF7CBFC401BB8424FF00300F5D9BF
:1033100019E000BFB8F1000F3FF5D3AE306C20F0DC
:1033200080503064CDE600BFFEF7B8FC054600BF14
:10333000306880037FF59BAEFEF7B0FC401B64282D
:103340004FF00300F4D902B0BDE8F081411E002027
:10335000B0EB116F1CBF012070474EF21002CEF28D
:10336000000251604EF62351CEF20001F0230B70A3
:10337000072190601160704770470000704700009F
:1033800090F83C20012A4FF0020254D010B580F88A
:103390003D200268D2F804E0D2F808C00C682EF094
:1033A0007003234341F2FF74C4F20004A24253604D
:1033B0000EDC40F2FF73C4F200039A4216DCB2F155
:1033C000804F2BD040F20043C4F2000324E000BF42
:1033D00040F2FF33C4F201039A4213DC41F60003CA
:1033E000C4F200039A4219D0002313E040F6000310
:1033F000C4F200039A4211D040F60043C4F2000325
:103400000AE000BF44F20003C4F201039A4205D06F
:1034100040F20043C4F201039A4204D149682CF0FF
:103420008003194391600121002280F83D1080F84B
:103430003C20BDE81040104670470000002804BF43
:103440000120704710B5044690F83D0028B90020CF
:1034500084F83C00204600F00DF8022084F83D007E
:103460002068211D03F05EFA012084F83D00002051
:1034700010BD000080B582B0006841F20041C4F286
:103480000001884216D040F20041C4F20001884297
:103490000ED10020019043F64000C4F20200016802
:1034A00041F002010160006800F002000190019803
:1034B00002B080BD0020009043F64000C4F202003C
:1034C0000168002241F0200101600068012100F044
:1034D0002000009000983720FFF7EEFB372002B065
:1034E000BDE88040FFF7D6BB0068C16841F001012C
:1034F000C160816801F00701062903D0016841F02D
:10350000010101600020704790F83C20012A4FF033
:10351000020200F0C28080B580F83D20D0F800C0E3
:103520004FF67772DCF8083023EA0202CCF8082064
:103530000B683F2B1CDD5F2B20DD602B50D0B3F5DB
:10354000005F6DD0702B40F0A080D1E901E3C96825
:10355000DCF8082043EA0E0322F47F4243EA01210B
:103560001143CCF80810DCF8081041F077018AE02C
:103570001F2B29DC63B3102B2AD086E0402B63D0AD
:10358000502B40F08280D1F804E0C968DCF820308C
:10359000DCF8202022F00102CCF82020DCF81820F2
:1035A00022F0F00242EA011123F00A0242EA0E027E
:1035B000CCF81810CCF82020DCF8081041F05701A6
:1035C00021F020015FE000BF202B01D0302B5CD127
:1035D000DCF8081021F07001194341F0070152E0B6
:1035E000D1F804E0C968DCF8203023F01003CCF8EF
:1035F0002030DCF81830DCF8202023F4704322F06F
:10360000A00243EA013142EA0E12CCF81810CCF8BD
:103610002020DCF8081041F0670121F0100132E0B1
:10362000D1E901E3C968DCF8082043EA0E0322F47B
:103630007F4243EA01211143CCF80810DCF808105E
:1036400041F480411FE000BFD1F804E0C968DCF814
:103650002030DCF8202022F00102CCF82020DCF819
:10366000182022F0F00242EA011123F00A0242EA95
:103670000E02CCF81810CCF82020DCF8081041F02D
:10368000470121F03001CCF808100121002280F818
:103690003D1080F83C20BDE8804010467047000097
:1036A000002804BF012070472DE9F047044690F838
:1036B0003D000D4628B9002084F83C00204600F06B
:1036C0003FF8022084F83D00206844F20702816838
:1036D00091438160211D03F025F920684FF6FF78A2
:1036E00081688269D0F820C0D5E9003ED5E9026A38
:1036F00043EA0109AB6922EA080246EA03234FF6CE
:10370000FC46B343D5E9076742EA0A0229691A432E
:1037100042EA062242EA01112CF0AA026B6942EA4F
:103720000E0241EA073142EA0312C0F808908161B3
:103730000262012084F83D000020BDE8F08700000F
:1037400080B586B0006840F60002C4F20002002195
:103750009042CDE90411CDE90211019122D0B0F1DE
:10376000804F48D1002043F630010090C4F202019E
:103770000A6942F001020A610A6902F0010200923C
:10378000009A00900868032240F001000860086871
:10379000012100F00100009000980020C4F2020016
:1037A0001FE000BF43F630000091C4F2020002693E
:1037B00042F004020261026902F004020092009ADF
:1037C00000910168C02241F00201016000680221FD
:1037D00000F00200009000980020C4F2020000F502
:1037E00080600192022202920022059101A9CDE996
:1037F0000322FEF775F906B080BD0000042905D04C
:1038000031B9016801206FF001020DE0016808E0A4
:103810000168086A20F001000862086A40F00100AF
:10382000086210206FF010020B6A1A400A620A6ADE
:1038300010430862086840F0010200200A607047E7
:103840007047000010B5016804460869800744BF4E
:10385000C8685FEA807039D40869400744BFC86807
:103860005FEA40703ED40869000744BFC8685FEA59
:10387000007045D40869C00644BFC8685FEAC060EC
:103880004AD40869C0071CBFC8685FEAC07051D13C
:103890000869000644BFC8685FEA006052D408693E
:1038A000400644BFC8685FEA406053D40869800698
:1038B00046BFC8685FEA806010BD6FF020022046F6
:1038C0000A61BDE81040FFF759BD00BF6FF002006C
:1038D0000861012020778869800743D02046FFF7E0
:1038E000AFFF45E06FF0040008610220207788698F
:1038F00010F4407F40D02046FFF7A2FF42E000BF17
:103900006FF00800086104202077C86980073DD067
:103910002046FFF795FF3FE06FF010000861082098
:103920002077C86910F4407F3AD02046FFF788FF1F
:103930003CE000BF6FF001000861204600F092F902
:103940002168A5E76FF0800008612046FFF714FDAD
:103950002168A4E76FF040000861204600F08CF970
:103960002168A3E7204600F025F8204600F052F930
:103970002168002020776FE7204600F01BF82046E2
:1039800000F048F92168002020776CE7204600F01D
:1039900011F8204600F03EF921680020207769E701
:1039A000204600F007F8204600F034F92168002096
:1039B000207766E77047000090F83C30012B4FF00D
:1039C000020300F006814FEAB202032A80F83D307C
:1039D00000F2F9802DE9F043DFE802F0023E7EBEFE
:1039E000036840F200461A6A43F4806522F001023F
:1039F0001A621C6A1A46D3F804C052F818EF8F688E
:103A000024F00204C4F20106B54244EA070405D1D9
:103A1000CF6824F00C0427F004073C430F68B5423C
:103A200006D1D1E905582CF440762E4346EA080C1D
:103A30002EF073063743C3F804C09F614F680969CD
:103A40005F631C629F6947F008079F619F6927F0C9
:103A500004079F61B2E000BF036840F200481A6AA1
:103A600043F4806522F010021A621C6A1A46D3F8E9
:103A700004C052F818EF8F6824F02004C4F2010843
:103A8000454544EA071407D1CF686FF0400624F09B
:103A9000C00406EA07163443D1F80090454506D124
:103AA000D1E905562CF440672E4347EA860C2EF4E4
:103AB000E64747EA0927C3F804C09F614F680969D0
:103AC0009F631C629F6947F400679F619F6927F4A9
:103AD00080679F6171E000BF036840F200481A6A86
:103AE00043F4806522F480721A621C6A1A46D3F885
:103AF00004C052F81CEF8F6824F40074C4F201086B
:103B0000454544EA072408D1CF6840F2FF463F020A
:103B100024F4406427EA06063443D1F80090454572
:103B200006D1D1E905562CF440572E4347EA061C2E
:103B30002EF0730747EA0907C3F804C0DF614F6836
:103B40000969DF631C62DF6947F00807DF61DF692D
:103B500027F00407DF6131E0036840F200451A6A8C
:103B600043F4806722F480521A621A46D3F820C0C8
:103B70005C6852F81CEFD1F800808E68C4F2010531
:103B8000AF4204D14D6924F4804444EA85142CF4F6
:103B9000005747EA06372EF4E64646EA08265C60F8
:103BA000DE614E6809691E641F62DF6947F40067C1
:103BB000DF61DF6927F48067DF6109021368194359
:103BC0001160BDE8F0430121002380F83D1080F82A
:103BD0003C30184670470000002804BF01207047A1
:103BE00010B5044690F83D0028B9002084F83C0048
:103BF000204600F00DF8022084F83D002068211DC9
:103C000002F090FE012084F83D00002010BD00006D
:103C10007047000070470000006801F01F0101229A
:103C2000036A02FA01F123EA01020262D0F820C01D
:103C300040F2004240F48063C4F20102934241EA40
:103C40000C01016203D1416C41F40041416481687F
:103C500001F00701062903D0016841F0010101606C
:103C600000207047006841F20041C4F20001884220
:103C700018BF7047FDF7B0BE7047000070470000E6
:103C8000B0B5054600680168C368446901F02F02B9
:103C9000202A03F0200213D192B195F83A1022297C
:103CA00040F01881A968B1F5805F41D12A69A96AFD
:103CB0004068002A64D0C0B221F8010B64E000BF64
:103CC0005FEA017C1EBF04F0010E03F4907414EB54
:103CD0000E0439D10A0617D513F0800214D095F8D6
:103CE0003910212940F0F680AA68296AB2F5805F70
:103CF00032D10A886FF35F2242602A69002A14BF1A
:103D00000131023129622BE0490640F1E38013F0D2
:103D1000400108BFB0BDC16821F04001C160202151
:103D2000284685F83910BDE8B04000F037BB00BF29
:103D3000296940680029A96A18BF00F07F004A1C61
:103D4000AA62087021E000BFCC0718BF13F480738B
:103D500036D14B073AD440E04A1C2A6209784160C8
:103D6000E98C01390A04E98440F0B480C16821F08B
:103D70008001C160C16841F04001C160B0BD00BFB9
:103D80006FF35F2021F8020BA962E88D013801046E
:103D9000E88540F09F802868C16821F02001C1605B
:103DA000C16821F48071C160416921F00101416164
:103DB0002021284685F83A10BDE8B04000F0A0B9AF
:103DC000EB6B43F00103EB634B0706D5BEF1000F2D
:103DD00003D0EB6B43F00203EB638B0706D5BEF118
:103DE000000F03D0EB6B43F00403EB63BCF1000F57
:103DF00006D55EEA020303D0EB6B43F00803EB63E6
:103E0000EB6B002B66D089063AD5CAB395F83A1009
:103E1000222935D1A968B1F5805F07D12A69A96A3D
:103E200040687AB1C0B221F8010B0FE029694068FF
:103E30000029A96A18BF00F07F004A1CAA62087016
:103E400005E000BF6FF35F2021F8020BA962E88D47
:103E5000411EE9852868090412D1C16821F02001BA
:103E6000C160C16821F48071C160416921F0010124
:103E70004161202085F83A00284600F041F9286881
:103E80004169EA6B01F0400102F00802891823D071
:103E9000C16821F49071C160416921F00101416163
:103EA000202185F83A10416949061BD5416921F066
:103EB00040014161686BA8B146F66121C0F600017E
:103EC0000165FDF7D5FD28B1686B016DBDE8B04017
:103ED000084700BFB0BD00BF2846FFF7CFFE002057
:103EE000E863B0BD2846BDE8B040FFF7C7BE00009C
:103EF000002804BF0120704710B5044690F839002F
:103F000028B9002084F83800204600F021F8242049
:103F100084F839002068C16821F40051C16020464E
:103F200002F0A4FD2068016921F49041016141691A
:103F300021F02A014161C16841F40051C1600020B3
:103F40002021E06384F8391084F83A1010BD000095
:103F5000F0B587B0006844F20042C4F200020021CC
:103F60009042CDE90511CDE9031102912ED044F61E
:103F70000001C4F2000188424CD041F20001C4F2B9
:103F80000101884240F09080002043F6300101900A
:103F9000C4F202014A69252442F010024A614A69CA
:103FA00002F010020192019A01900A6842F00102A7
:103FB0000A60096801F00101019101994FF4C061A3
:103FC00002910221CDE903101EE000BF43F630004C
:103FD0000191C4F202000269262442F40032026117
:103FE000026902F400320192019A0191026842F0E2
:103FF00001020260006800F00100019001980C20AD
:1040000002900220CDE90301032005900020C4F2B4
:1040100002003CE0002443F630000194C4F20200A8
:104020000169002741F4802101610169C4F202079E
:1040300001F480210191019901940168022541F068
:10404000040101600168032601F004010191019956
:104050000194016841F002010160006802A900F0CA
:10406000020001900198202002900720069007F599
:104070000060CDE903540596FDF732FD4FF48060F2
:10408000CDE90205CDE9044607F580602724072124
:10409000069102A9FDF724FD204600210022FEF72B
:1040A0000BFE2046FEF7F6FD07B0F0BD034690F884
:1040B0003A0020280AD100294FF0010018BF002A39
:1040C00000D1704793F83800012801D102207047D1
:1040D0009962002022219A85DA85D86383F83A1004
:1040E000196883F83800CA6842F48072CA604A6965
:1040F00042F001024A61CA6842F02002CA60704779
:10410000016844F60002C4F20002914208D041F274
:104110000002C4F20102914218BF7047FDF768B96E
:1041200040F6913040F24401C2F20000C2F20001B8
:1041300002780978022A0FD8012A3FD0002A49D1F3
:1041400001F0F002A02A53D140F25602C2F200025E
:10415000117001214BE000BF40F25603C2F2000390
:10416000522A99540CD840F6903CC2F2000C9CF8AC
:1041700000300132027083EA01008CF8000037E061
:1041800040F6903CC2F2000C9CF800205140CAB2AC
:104190008CF8001059781B7801F00F0103F00F0321
:1041A00043EA01114FF0000C8A4280F800C01FD191
:1041B00080B501F075F8BDE8804019E001F0F0022B
:1041C000502A13D140F25602C2F20002517002216D
:1041D0000DE000BF40F25602C2F2000291700322CD
:1041E000027040F69030C2F2000000E00021017041
:1041F00040F6503040F24401C2F20000C2F2000129
:104200000122FFF753BF00002DE9F041044690F86A
:10421000390020280ED10E4600294FF0010000F091
:10422000A6801746002A08BFBDE8F08194F8380040
:10423000012803D10220BDE8F08100BF012084F8ED
:1042400038004FF0000821201D46C4F83C8084F857
:104250003900FDF723FDA784E78484F83880E18CDA
:104260000746002960D005F1010805E016F8011B9A
:104270004160E18C002958D0E08C0138E08420684E
:10428000A1680268B1F5805F4FEA02611ED1002982
:104290000ED4B8F1000F2BD0002D6BD0FDF7FEFC33
:1042A000C11B2068A94265D801680906F6D500BF80
:1042B00031886FF35F2141602169002914BF013605
:1042C0000236E18C0029D7D12FE000BF0029CDD4E0
:1042D000B8F1000F1AD0002D4CD000BFFDF7DEFC66
:1042E000C11B2068A94245D801680906F6D5BDE77B
:1042F00001680906DCD4016809065CBF01685FEA51
:104300000161D5D401680906F2D5D1E70168090633
:10431000ACD4016809065CBF01685FEA0161A5D4FD
:1043200001680906F2D5A1E72068016849061AD498
:1043300005B3691C0ED10168490614D40168490609
:104340005CBF01685FEA41610DD401684906F2D59E
:1043500009E000BFFDF7A2FCC11B2068A94209D8F3
:1043600000684006F6D5202084F839000020BDE81A
:10437000F08100BFC16821F4D071C160416921F0B2
:1043800001014161202084F8390084F83A000020BE
:1043900084F838000320BDE8F08100007047000079
:1043A000FEE7000040F67C10C2F20000FDF780BC82
:1043B00040F67C10C2F20000FDF71EBD10B581B0C2
:1043C00000210091806B40F20C01C2F2000190F8D4
:1043D0003DC009684BF28952C908C1F2F842A1FBFD
:1043E0000212110A232251430091009911B300993E
:1043F000013900910168096889051FD50099C9B183
:1044000000990139009101680968890516D500995C
:1044100081B10099013900910168096889050DD5BC
:10442000009939B10099013900910168096889053D
:10443000DBD403E0016C41F020010164446B4FF0D8
:10444000000E002C1CBF0021E163816B00291CBF02
:104450000022CA630268002C136823F4806313608F
:10446000A0F82AE018BFC4F850E000291CBF0023C0
:104470000B65116821F00101116090F83D10602971
:104480000CD1202180F83D10002180F83E100164FD
:1044900001B0BDE81040FDF707BC00BF0CF02801DB
:1044A000282911D1116841F001011160116841F40E
:1044B0008061116000210163282180F83D1001B066
:1044C000BDE81040FDF7CEBF202180F83D1000214F
:1044D00080F83E1001B0BDE81040FDF7C3BF0000FA
:1044E00010B5044690F83D1090F83E00B0F110026F
:1044F00018BF0122403818BF0120024208BF2229FC
:1045000034D001F0280028283AD100202063282048
:1045100084F83D0020684168090542D5416821F4CE
:1045200000614160606B90F83510012958D1A06B93
:1045300044F2BD31C0F600010165FDF799FA00288B
:1045400061D020684169490606D50069616A087032
:10455000616A206801316162016821F00101016036
:10456000202084F83D00A06B4BE000BF206802686B
:1045700022F4006202604268120505D50CE000BF1B
:1045800020684268120507D4602905D0202184F8EC
:104590003D10002184F83E10002121634168090587
:1045A000BCD494F83D10602950D1202184F83D10EE
:1045B000002121644169490606D50069616A0870D5
:1045C000616A206801316162016821F001010160C6
:1045D0002046FDF769FB206C000717D11BE000BFE8
:1045E00044F2BD31C0F600010165FDF741FA50B15A
:1045F0002168606B0A6822F001020A60202184F8B9
:104600003D10016D8847206C000704D02068416888
:1046100021F4E061416094F83D00216C490758BFE6
:1046200010BD282810D10020CFF6FF70E0620021D5
:104630002020216384F83D00204684F83E10BDE828
:104640001040FDF7C3BF00BF10BD00BF4169490660
:1046500005D50069616A0870606A013060622046B1
:10466000FDF700FF206C0007D0D1D4E7C16A428D6E
:10467000042A07D10168426A4B6823F480634B60C7
:10468000096911E0428D032A16D102680229536894
:1046900023F48063536005D0042903D0116821F40A
:1046A000806111601169426A1170416A0131416291
:1046B000418D013941857047428D022A12D101395D
:1046C0000F2919D8DFE801F0081218121818181865
:1046D000181818181818180801680A6822F4806257
:1046E0000EE000BF0168426ACAE700BF01680A68BD
:1046F00042F4806204E000BF01680A6842F400727C
:104700000A600969426A1170416A02684B1C43627F
:10471000438D013B438512694A70416A0268013149
:104720004162418D01394185516821F440715160E8
:10473000202180F83D1090F83E200021402A80F88A
:104740003E1003D10163FDF747BF00BF1221016393
:10475000FDF73EBF81B090F83D10222972D1418D06
:10476000042913D30168426A09691170416A013151
:104770004162418D01394185418D032962D1006833
:10478000416821F4806141605CE000BFC26A012998
:1047900058D8022A56D00021009140F20C01C2F2F2
:1047A000000109684BF28952C908C1F2F842A1FB25
:1047B0000212110A01EB8101009100990139009167
:1047C0000099002940D001680A6892051AD500991D
:1047D000013900910099B9B301680A68920511D5B1
:1047E000009901390091009971B301680A68920536
:1047F00008D5009901390091009929B301680A6828
:104800009205DAD40A6822F480620A604A6822F4C7
:10481000E0624A600969426A1170416A013141628D
:10482000418D01394185202180F83D1090F83E20CE
:104830000021402A80F83E1022D1016301B0FDF72B
:10484000CBBE00BF01B07047016C41F02001016494
:104850000168426A4B6823F4E0634B600969117098
:10486000416A01314162418D01394185202180F841
:104870003D10002180F83E1001B0FDF7F3BD00BFF0
:104880001221016301B0FDF7A3BE0000C16A90F8D8
:104890003D20212A18BF7047428D4AB1416A026803
:1048A00011F8013B13614162418D01394185704727
:1048B00011F5803F18BF082912D101684A6822F417
:1048C000E0624A600A6842F400720A600021202215
:1048D000016380F83D2080F83E10FDF77BBE00BFED
:1048E0002029EAD001684A6822F4E0624A60112176
:1048F0000163002180F83E10202180F83D10FDF773
:1049000069BE000090F83D1090F83EC0C26A038D69
:10491000002B08BF212919D0212905D0BCF1400F57
:1049200008BF222900D07047418D69B390F83E102E
:10493000402908BF00F040B8416A026811F8013B05
:1049400013614162418D01394185704712F5803F05
:1049500018BF082A1ED101684A6822F4E0624A6042
:104960000A6842F400720A6000212022016380F884
:104970003D2090F83E2080F83E10402A08BFFDF709
:104980002DBEFDF727BE00BF0068416821F480619D
:1049900041607047202ADED001684A6822F4E06254
:1049A0004A6011210163002180F83E10202180F827
:1049B0003D10FDF70FBE000090F83D10026D5AB19A
:1049C000026D012A14D10168826CD2B20A61016DB4
:1049D00001310165704700BFC26C816C012A13D19F
:1049E0000268C9B21161016D02310165704700BFF3
:1049F000026D022A18BF704722290DD10068016894
:104A000041F48071016070470268C1F307211161B0
:104A1000016D013101657047428D5AB1212909D1DB
:104A2000416A026811F8013B13614162418D01390D
:104A300041857047428D002A08BF212900D0704768
:104A400001684A6822F4E0624A600A6842F400722F
:104A50000A6000212022016380F83D2080F83E108A
:104A6000FDF7BCBD2DE9F04383B0044600680B9D03
:104A70000A9E0768994647F4806707600768904672
:104A800047F48073036043690F46DA071DD1711C38
:104A900011D0002E00F03681FDF700F9401BB04226
:104AA00000F2328120684169C907F5D00DE000BFEE
:104AB0004169C90709D14169C90706D14169C907D7
:104AC00004BF41695FEAC171F2D007F0FE070761D8
:104AD0004169890738D44169721C29D0490529D414
:104AE000002E00F0398100BFFDF7D8F8401BB0421E
:104AF00000F2348120684169890725D4416949055C
:104B0000F2D517E0416989071ED44169490511D4DE
:104B10004169890718D4416949050BD4416989075E
:104B200012D44169490505D4416989070CD441690A
:104B30004905E7D5016841F4007101606FF48061B7
:104B4000416104200BE100BF00210291014651F8B0
:104B5000142F02924A680292029A0A68120620D41E
:104B6000002E00F0AB80721C51D10A68520500F192
:104B7000AD800A68120614D40A68520500F1A680B6
:104B80000A6812060DD40A68520500F19F800A686F
:104B9000120606D40A68520500F198800A681206C7
:104BA000E3D5B9F1010F45D04FEA18210161014663
:104BB00051F8142F12063DD4002E00F07F80721C95
:104BC0002AD10A68520500F181800A68120631D4A0
:104BD0000A6852057AD40A6812062BD40A6852056C
:104BE00074D40A68120625D40A6852056ED40A687D
:104BF0001206E6D51EE000BFFDF750F8401BB0429C
:104C000061D82068014651F8142F1206C9D40868EB
:104C10004005F1D55AE000BF0868400556D4FDF7BD
:104C20003DF8401BB0424ED82068014651F8142F81
:104C30001206F1D55FFA88F10161014651F8142F8F
:104C400012061AD4D6B3721C33D10A6852053DD469
:104C50000A68120611D40A68520537D40A68120687
:104C60000BD40A68520531D40A68120605D40A68C2
:104C700052052BD40A681206E7D50168002241F4D8
:104C80008071016020464FF001113346009500F01D
:104C900005FA002850D02068006844E0FCF7FEFFC9
:104CA000401BB0420FD82068014651F8142F12065D
:104CB000E3D408684005F1D508E000BF0868400566
:104CC00004D4FCF7EBFF202004E000BF6FF4806009
:104CD0000860042000212022216384F83D2084F80C
:104CE0003E10226C1043206484F83C10206C042891
:104CF00041D12068016841F400710160012003B0D6
:104D0000BDE8F083FCF7CAFF00202021206384F86F
:104D10003D1084F83E00216C41F02001216421689F
:104D200084F83C000868C00544BF4FF4007020645C
:104D3000032003B0BDE8F08347F0010C276802218F
:104D4000C0F20101204632462B46C7F810C003B01E
:104D5000BDE8F04300F046BAFCF7A0FF2020002198
:104D60002022216384F83D2084F83E10226C1043F9
:104D7000206484F83C10012003B0BDE8F0830000FB
:104D80002DE9F04381B00446006890460268099D11
:104D900042F4807202604269089E9946D2070F462B
:104DA0001DD1711C11D0002E00F0D280FCF776FFCF
:104DB000401BB04200F2CE8020684169C907F5D09F
:104DC0000DE000BF4169C90709D14169C90706D192
:104DD0004169C90704BF41695FEAC171F2D007F0B8
:104DE000FE0101614169890738D44169721C29D0EB
:104DF000490529D4002E00F0E98000BFFCF74EFFE2
:104E0000401BB04200F2E48020684169890725D444
:104E100041694905F2D517E0416989071ED4416906
:104E2000490511D44169890718D4416949050BD452
:104E30004169890712D44169490505D44169890747
:104E40000CD441694905E7D5016841F4007101605E
:104E50006FF4806141610420BBE000BF002100913C
:104E6000014651F8142F00924A680092009A0A688D
:104E700012061ED4002E00F08580721C4DD10A68E7
:104E8000520500F187800A68120612D40A6852059A
:104E900000F180800A6812060BD40A68520579D4A2
:104EA0000A68120605D40A68520573D40A68120605
:104EB000E5D5B9F1010F43D04FEA18210161014650
:104EC00051F8142F12063BD4002E5BD0721C29D14E
:104ED0000A6852055ED40A68120631D40A6852057F
:104EE00058D40A6812062BD40A68520552D40A68AC
:104EF000120625D40A6852054CD40A681206E7D572
:104F00001EE000BFFCF7CAFE401BB0423FD820683D
:104F1000014651F8142F1206CBD408684005F1D58C
:104F200038E000BF0868400534D4FCF7B7FE401BEA
:104F3000B0422CD82068014651F8142F1206F1D542
:104F40005FFA88F10161002001B0BDE8F08300BF85
:104F5000FCF7A4FE00202021206384F83D1084F893
:104F60003E00216C41F020012164216884F83C005E
:104F70000868C00544BF4FF400702064032001B0EE
:104F8000BDE8F0830868400504D4FCF787FE2020C4
:104F900004E000BF6FF4806008600420002120223C
:104FA000216384F83D2084F83E10226C1043206475
:104FB00084F83C10206C042817D12068016841F463
:104FC00000710160012001B0BDE8F083FCF766FECE
:104FD000202000212022216384F83D2084F83E1007
:104FE000226C1043206484F83C10012001B0BDE81D
:104FF000F083000070B50368044653F8140F4007AF
:1050000037D40E46F1B1701C24D100BF186840059A
:1050100032D4186840072CD4186840052CD418687E
:10502000400726D41868400526D41868400720D4C5
:105030001868400520D4186840074FF0000048BFAA
:1050400070BDE3E71868400516D4FCF727FE202062
:1050500016E000BF154600BF186840050CD4FCF7E9
:105060001DFE401BB042F2D8236853F8140F4007CE
:10507000F2D5002070BD00BF6FF48060186004207E
:1050800000212022216384F83D2084F83E10226C08
:1050900010432064012084F83C1070BD2DE9F041DC
:1050A00005461446DDF8188001F47F002A681E4684
:1050B000B0F5803F8FB23FD150693840C01BB0FA85
:1050C00080F04009A04277D1701C2BD0002E77D001
:1050D000FCF7E4FDA0EB0800B04273D828684069F3
:1050E0003840C01BB0FA80F04009A042F0D063E025
:1050F00050693840C01BB0FA80F04009A0425BD133
:1051000050693840C01BB0FA80F04009A04253D12A
:1051100050693840C01BB0FA80F04009A0424FF0FF
:1051200000005DD150693840C01BB0FA80F04009E2
:10513000A042DDD040E000BF90693840C01BB0FA0B
:1051400080F04009A04237D1701C1DD0C6B300BF0B
:10515000FCF7A4FDA0EB0800B04233D828688069B2
:105160003840C01BB0FA80F04009A042F0D023E0E4
:1051700090693840C01BB0FA80F04009A0424FF05F
:10518000000018BFBDE8F08190693840C01BB0FA3C
:1051900080F04009A0420FD190693840C01BB0FA9E
:1051A00080F04009A04207D190693840C01BB0FA96
:1051B00080F04009A042DBD00020BDE8F08100BFB4
:1051C000FCF76CFD00202021286385F83D1085F850
:1051D0003E00296C41F02001296485F83C00012043
:1051E000BDE8F081F0B581B0044600681D46436912
:1051F0008FB203EA0701B94202D1002001B0F0BD2D
:105200004169164601321AD049050ED4A6B300BF33
:10521000FCF744FD401BB04230D82068416939405A
:10522000B942EAD041694905F2D5016841F40071FB
:1052300001606FF480614161042020E0416949050B
:10524000F3D441693940B942D7D041694905ECD41A
:1052500041693940B942D0D041694905E5D4416935
:105260003940B942C9D041694905DED44169394064
:10527000B942E3D1C1E700BFFCF710FD20200021B7
:105280002022216384F83D2084F83E10226C1043D4
:10529000206484F83C10012001B0F0BD0000000043
:1052A0002DE9F04F81B040F24408C2F2000898F8AE
:1052B000150098F8141000F07F0041EA0020FBF779
:1052C00031FA9FEDE10B53EC102BFBF7B9F9FBF72B
:1052D0004DFA98ED012A00EE100AB4EE402A40F291
:1052E000AC1EF1EE10FAC2F2000E80F2B18030EE88
:1052F000421AB3EE042A81EE021AB8F802009FEDBA
:10530000D52A0EEB80099FEDD23A9FEDD34AA9F141
:1053100002030021009000BFC8B205EE100AB8EEEB
:10532000455A21EE055A35EE005AB4EE435AF1EED5
:1053300010FA35EE026AC8BFB0EE465A25EE045A9E
:105340004D1CBDEEC55AEDB215EE10AA05EE105A71
:10535000B8EE455A21EE055A35EE005AB4EE435ADE
:10536000F1EE10FA35EE026AC8BFB0EE465A25EEED
:10537000045A8E1CBDEEC55AF6B215EE10BA05EEF3
:10538000106AB8EE455A21EE055A35EE005AB4EED1
:10539000435AF1EE10FA35EE026AC8BFB0EE465A33
:1053A00025EE045ACF1CBDEEC55AFFB215EE106AA9
:1053B00005EE107AB8EE455A21EE055A35EE005A40
:1053C000B4EE435AF1EE10FA35EE026AC8BFB0EE01
:1053D000465A25EE045A0C1DBDEEC55AE4B215EE30
:1053E000107A05EE104AB8EE455A21EE055A35EE10
:1053F000005AB4EE435A08EB8104F1EE10FA35EE90
:10540000026AC8BFB0EE465AA27DE07D25EE045A7E
:1054100042EA002009EB81025080608BB4F81EC084
:10542000D080608CE48CBDEEC55A053115EE105A63
:10543000A2F80AC0D08123F8144F142923F812AC23
:10544000A2F804B01681978115827FF465AFAFE0B2
:105450009FED7F1AB8F8020030EE013A33EE422A8F
:10546000B3EE043A82EE032A0EEB800C9FED793AFC
:105470009FED794AACF1020300210090C8B205EE1D
:10548000100AB8EE455A22EE055A35EE005AB4EE2F
:10549000415AF1EE10FA35EE036AC8BFB0EE465A33
:1054A00025EE045A4F1CBDEEC55AFFB215EE109AF8
:1054B00005EE107AB8EE455A22EE055A35EE005A3E
:1054C000B4EE415AF1EE10FA35EE036AC8BFB0EE01
:1054D000465A25EE045A8F1CBDEEC55AFFB215EE92
:1054E00010AA05EE107AB8EE455A22EE055A35EEAE
:1054F000005AB4EE415AF1EE10FA35EE036AC8BF15
:10550000B0EE465A25EE045ACF1CBDEEC55AFFB286
:1055100015EE10BA05EE107AB8EE455A22EE055A8D
:1055200035EE005AB4EE415AF1EE10FA35EE036A48
:10553000C8BFB0EE465A25EE045A0C1DBDEEC55A42
:10554000E4B215EE107A05EE104AB8EE455A22EE96
:10555000055A35EE005AB4EE415A08EB8104F1EEDB
:1055600010FA35EE036AC8BFB0EE465AA27DE07D60
:1055700025EE045A42EA00200CEB81025080608B39
:10558000E68BD080608CE48CBDEEC55A053115EEFB
:10559000105A5681D08123F8144F142923F8129CF5
:1055A000A2F804A0A2F808B0978115827FF466AF34
:1055B000009888ED010A143081B2B1F5827FA8F815
:1055C00002003BD94FF6184040F29451CFF6FF70DD
:1055D000C2F200010EEB0002B2F8E8330F18A7F890
:1055E000E833D2F8EA33D2F8EE63C7F8EA33D2F8F8
:1055F000FA33C7F8EE63D2F8FE63C7F8FA33D2F88D
:105600000234D2F8F253D2F8F643C7F8FE63B2F888
:105610000664C7F80234D2F80834D2F80C242830D3
:10562000C7F8F253C7F8F643A7F80664C7F808347A
:10563000C7F80C24CED10020A8F8020001B0BDE8C4
:10564000F08F00BF00BF00BF000000000000903FCF
:105650000000B4430000B4C30000C8422DE9F04F7D
:105660008FB0CDE903104FF0000A4FF0640B002714
:10567000002400254FF000094FF00008642617E0D1
:105680000A9808FA80F8099809FA80F9089805FA42
:1056900080F5079804FA80F4069807FA80F70598D1
:1056A0000AFA80FA0A20FCF7F9F9BBF1010B2DD0B8
:1056B0000DF12E0000900E2001900498D0213B2285
:1056C00001230296FCF78CFF0028D9D1BDF82E00EB
:1056D000BDF8301000BA000C0A9008BABDF83210BC
:1056E000000C099008BABDF83610000C089008BAF2
:1056F000BDF83810000C079008BABDF83A10000C3D
:10570000069008BA000C0590BAE700BF48F21F5097
:10571000C5F2EB1058FB00F14A09039B02EBD17173
:10572000198059FB00F14A0902EBD171598055FBF0
:1057300000F14A0902EBD171998054FB00F14A094A
:1057400002EBD171D98057FB00F14A0902EBD1710C
:105750005AFB00F01981410901EBD0704DF20A713A
:10576000C3F623415881002059610121C3E9030098
:105770001976C3E90700C3E90900C3E90B000FB0BC
:10578000BDE8F08FB0F906109FED253A02EE101A31
:10579000B0F90810B8EEC22A04EE101AB0F90A10D7
:1057A000B8EEC44A05EE101AB8EEC55AB0F900308A
:1057B00082EE032A84EE034A85EE033A00EE103AA5
:1057C0009FED151AB8EEC00A9FED145AB0F90220E9
:1057D00020EE010A20EE050A80ED030A00EE102AF1
:1057E000B8EEC00AB0F904C020EE010A20EE050AA6
:1057F00080ED040A00EE10CAB8EEC00A20EE010ADD
:1058000020EE050A80ED050A80ED062A80ED074AA4
:1058100080ED083A704700BF000080380AE81C415C
:105820000000034380B5B0F800C00B88B0F802E078
:10583000ACEB030C4B88A2F800C0AEEB030CB0F845
:1058400004E08B88A2F802C0AEEB030CB0F806E0CF
:10585000CB88A2F804C0AEEB030CB0F808E00B89CB
:1058600040894989AEEB0303401AA2F806C01381B0
:10587000508180BDB0B584B0044664200DF10F01A5
:105880000125009102902046D02175220123019527
:10589000FCF7A6FE10B1284604B0B0BD9DF80F007D
:1058A0000125702801D06828F5D100208DF80E0060
:1058B0000DF10E004FF0640CCDE900052046D0211B
:1058C0006B220123CDF808C0FDF740F805460028FB
:1058D00018BF0125284604B0B0BD0000B7EE001A7D
:1058E00091ED072A90ED036A31EE401A91ED083AE6
:1058F00021EE022A90ED047A20EE066A36EE022AA4
:1059000091ED094AD0ED050A81ED072A21EE032A1F
:1059100020EE073A33EE022A91ED0A5AD0ED061A2C
:1059200081ED082A21EE042A20EE203A33EE022AE5
:1059300081ED092A21EE052A20EE213A33EE022AD2
:1059400081ED0A2A91ED0B2A90ED073A21EE022A09
:1059500020EE033A33EE022A81ED0B2A91ED0C2A58
:1059600090ED083A21EE021A20EE030A30EE010A09
:1059700081ED0C0A70470000B0B588B00C46642178
:105980000E220DF11203CDE900320291D0213B220B
:1059900001230125FCF724FE10B1284608B0B0BD54
:1059A000BDF81200BDF8141000BA000C208008BA2F
:1059B000BDF81610000C608008BABDF81A10000C73
:1059C000A08008BABDF81C10000CE08008BABDF831
:1059D0001E10000C208108BA000C002560812846AA
:1059E00008B0B0BD80B586B0002043F63001CDE9E7
:1059F00004000090C4F202010A6842F080020A60CA
:105A00000A6802F080020092009A00900A6842F050
:105A100001020A600A6802F001020092009A0090F6
:105A20000A6842F004020A600A6802F00402009266
:105A3000009A00900A6842F002020A60096801F0C8
:105A4000020100910099402101910021C1F2110150
:105A5000CDE9021040F60000C4F2020001A9FCF7F3
:105A60003FF8172000210022FDF726F91720FDF747
:105A700011F906B080BD000080B540F67C1045F2FB
:105A80000041C2F20000C4F2000148F2A06200230B
:105A90004FF4804CC0F2010280E80E00C0E9033CE4
:105AA000C0E90533C0E90733FCF7DEFC002808BF76
:105AB00080BDBDE88040FBF7D5BF000080B58CB04D
:105AC00040F6D0100021C2F200004FF08042C0E941
:105AD000002103224FF0FF33CDE903210122CDE95C
